:100000000C9462000C948A000C948A000C948A0070
:100010000C948A000C948A000C948A000C948A0038
:100020000C948A000C948A000C948A000C948A0028
:100030000C948A000C948A000C948A000C948A0018
:100040000C94CC020C948A000C949A020C947402C6
:100050000C948A000C948A000C948A000C948A00F8
:100060000C948A000C948A000000000023002600F3
:10007000290000000000240027002A0000000000E2
:10008000250028002B0004040404040404040202D4
:100090000202020203030303030301020408102007
:1000A0004080010204081020010204081020000012
:1000B0000008000201000003040700000000000027
:1000C0000000D70311241FBECFEFD8E0DEBFCDBFA5
:1000D00011E0A0E0B1E0E8E1F8E002C005900D9287
:1000E000AA33B107D9F721E0AAE3B1E001C01D921C
:1000F000A03EB207E1F710E0C2E6D0E004C02197CD
:10010000FE010E940404C136D107C9F70E941603FC
:100110000C940A040C94000090E0FC01E656FF4F9A
:1001200024918A579F4FFC018491882399F090E095
:10013000880F991FFC01EE58FF4FA591B491FC0167
:10014000E458FF4F859194918FB7F894EC91E22B8E
:10015000EC938FBF0895AF92BF92CF92DF92EF9250
:10016000FF920F931F93CF93DF936C017B018B0161
:10017000040F151FEB015E01AE18BF08C017D107B1
:1001800059F06991D601ED91FC910190F081E02D3B
:10019000C6010995892B79F7C501DF91CF911F9190
:1001A0000F91FF90EF90DF90CF90BF90AF900895A8
:1001B000FC01538D448D252F30E0842F90E0821B6D
:1001C000930B541710F0CF96089501970895FC01F2
:1001D000918D828D981761F0A28DAE0FBF2FB11D4A
:1001E0005D968C91928D9F5F9F73928F90E00895A2
:1001F0008FEF9FEF0895FC01918D828D981731F05C
:10020000828DE80FF11D858D90E008958FEF9FEFAF
:100210000895FC01918D228D892F90E0805C9F4F85
:10022000821B91098F739927089583E491E00E94BE
:10023000090121E0892B09F420E0822F089580E054
:1002400090E0892B29F00E94150181110C94000087
:100250000895FC01A48DA80FB92FB11DA35ABF4F5B
:100260002C91848D90E001968F739927848FA689B5
:10027000B7892C93A089B1898C91837080648C9309
:10028000938D848D981306C00288F389E02D8081B8
:100290008F7D80830895EF92FF920F931F93CF93EA
:1002A000DF93EC0181E0888F9B8D8C8D98131AC0B1
:1002B000E889F989808185FF15C09FB7F894EE8998
:1002C000FF896083E889F9898081837080648083F5
:1002D0009FBF81E090E0DF91CF911F910F91FF9040
:1002E000EF900895F62E0B8D10E00F5F1F4F0F73E8
:1002F0001127E02E8C8D8E110CC00FB607FCFACFA3
:10030000E889F989808185FFF5CFCE010E94290116
:10031000F1CFEB8DEC0FFD2FF11DE35AFF4FF08273
:100320009FB7F8940B8FEA89FB8980818062CFCFD9
:10033000CF93DF93EC01888D8823B9F0AA89BB891C
:10034000E889F9898C9185FD03C0808186FD0DC007
:100350000FB607FCF7CF8C9185FFF2CF808185FF28
:10036000EDCFCE010E942901E9CFDF91CF91089511
:10037000833081F028F4813099F08230A9F008951B
:100380008730A9F08830C9F08430B1F480918000C2
:100390008F7D03C0809180008F77809380000895C7
:1003A00084B58F7784BD089584B58F7DFBCF809110
:1003B000B0008F778093B00008958091B0008F7D5A
:1003C000F9CF1F93CF93DF93E7EBF0E09491E3EA4B
:1003D000F0E0D491EFE8F0E0C491CC23B9F0182F0D
:1003E000992319F0892F0E94B801EC2FF0E0EE0F4D
:1003F000FF1FE458FF4FA591B4918FB7F894EC918B
:10040000111108C0D095DE23DC938FBFDF91CF910F
:100410001F910895DE2BF8CF3FB7F89480913F01EC
:1004200090914001A0914101B091420126B5A89B55
:1004300005C02F3F19F00196A11DB11D3FBFBA2F76
:10044000A92F982F8827BC01CD01620F711D811D36
:10045000911D42E0660F771F881F991F4A95D1F7BB
:1004600008958F929F92AF92BF92CF92DF92EF92B8
:10047000FF920E940C024B015C0188EEC82E83E0C3
:10048000D82EE12CF12C0E940C02681979098A09F6
:100490009B09683E734081059105A8F321E0C21ACB
:1004A000D108E108F10888EE880E83E0981EA11CAF
:1004B000B11CC114D104E104F10429F7FF90EF90BD
:1004C000DF90CF90BF90AF909F908F900895FC01E8
:1004D00001900020E9F73197AF01481B590BBC018F
:1004E00083E491E00C94AB001F920F920FB60F9231
:1004F00011242F933F934F935F936F937F938F9329
:100500009F93AF93BF93EF93FF9383E491E00E9497
:100510002901FF91EF91BF91AF919F918F917F91B1
:100520006F915F914F913F912F910F900FBE0F9060
:100530001F9018951F920F920FB60F9211242F93B0
:100540008F939F93EF93FF93E0915301F0915401A8
:100550008081E0915901F0915A0182FD1BC0908188
:1005600080915C018F5F8F7320915D01821741F054
:10057000E0915C01F0E0ED5BFE4F958F80935C01B4
:10058000FF91EF919F918F912F910F900FBE0F9040
:100590001F9018958081F4CF1F920F920FB60F9283
:1005A00011242F933F938F939F93AF93BF93809189
:1005B0003B0190913C01A0913D01B0913E013091F1
:1005C0003A0123E0230F2D3758F50196A11DB11DE7
:1005D00020933A0180933B0190933C01A0933D010D
:1005E000B0933E0180913F0190914001A091410163
:1005F000B09142010196A11DB11D80933F019093DE
:100600004001A0934101B0934201BF91AF919F91EE
:100610008F913F912F910F900FBE0F901F901895C3
:1006200026E8230F0296A11DB11DD2CF789484B580
:10063000826084BD84B5816084BD85B5826085BDDE
:1006400085B5816085BD80916E00816080936E006C
:10065000109281008091810082608093810080915E
:10066000810081608093810080918000816080930F
:1006700080008091B10084608093B1008091B000CF
:1006800081608093B00080917A00846080937A00CA
:1006900080917A00826080937A0080917A008160F4
:1006A00080937A0080917A00806880937A0010921B
:1006B000C100E0915301F091540182E08083E09108
:1006C0004F01F09150011082E0915101F0915201DF
:1006D0008FEC808310925B01E0915701F0915801FB
:1006E00086E08083E0915501F09156018081806120
:1006F0008083E0915501F09156018081886080836C
:10070000E0915501F0915601808180688083E091ED
:100710005501F091560180818F7D80838DE00E948C
:100720008C0089E00E948C00CBEBD0E007EA10E05F
:1007300093E9E92E90E0F92E20E0C22E20E0D22E9F
:10074000FE018491F801A490F701B490BB2029F137
:1007500081110E94B801EB2DF0E0EE0FFF1FE85968
:10076000FF4FA591B4918C91A822B9F082E191E05C
:100770000E94670282E291E00E94670281E00E948B
:10078000E1010E943102C114D104D1F20E9415018D
:100790008823B1F20E940000D3CF85E291E00E944D
:1007A000670282E291E00E94670280E0E8CFE3E422
:1007B000F1E01382128288EE93E0A0E0B0E084833F
:1007C0009583A683B78384E091E09183808385EC51
:1007D00090E09587848784EC90E09787868780EC0B
:1007E00090E0918B808B81EC90E0938B828B82ECFC
:1007F00090E0958B848B86EC90E0978B868B118EA6
:10080000128E138E148E0895EE0FFF1F0590F49133
:08081000E02D0994F894FFCFDC
:10081800000000004B01AB00D80098010901E70077
:10082800FB004D6F74696F6E204465746563746571
:1008380064000D0A004D6F74696F6E206E6F74202E
:0A0848004465746563746564000084
:00000001FF
